:1000000080C1ACC244C998C197C137C295C194C1DF
:1000100093C192C191C190C18FC18EC18DC10000A9
:100020000000360002020202020202020202010283
:100030000408102020041008010200000400000041
:100040000000010101018181C1E1F1F10111F1F132
:10005000E1C1C18181010101010101010101010130
:10006000010101010101FCFCFEFFFFFFFFFFFFFF9B
:10007000FF00FFFFFFFFFFFFFFFFFFFEF800000094
:1000800000000000000000000000FFFF7F3FBF9F56
:10009000CFEFE7F7FBE001FBF3F7E7EFCFDFDFBFE1
:1000A000BF3000000000000000000000000000FE63
:1000B000FFFFFFFFFFFFFFFFFFFF003FFFFFFFFF0F
:1000C000FFFFFFFFFFFFE006FEFCFCFCF8F8F0F08E
:1000D000E00000FFFF7F7F3FBF9FDFCFEFEFE40037
:1000E000F7E7EFEFCFDFDF9FBFBF3F00077FFFFFE7
:1000F000FFFFFFFFFFF000FCFEFEFFFFFFFFFFFF23
:10010000FFFFFF8007FFFFFFFFFFFFFFFFFFFFFF76
:10011000C00E3E1E1C1D0D0903030007FFFFFFFF5D
:10012000FFFFFFFFFF7F7F3F003F3F7F7F7F7F7F9E
:10013000FFFFFFFFFF800000000000000000808044
:10014000838383898D8D8C8E8E8E8F8F9F8F8F8FE3
:100150008F87868682828280808080808080808077
:10016000808077770000707770007000707770077C
:100170007007700700EE7077000E7007EE00000049
:100180000000000000000000003F00000000000030
:100190000000000C0C006030180C060301003E63E8
:1001A000737B6F673E000C0E0C0C0C0C3F001E3373
:1001B000301C06333F001E33301C30331E00383CE9
:1001C00036337F3078003F031F3030331E001C066B
:1001D000031F33331E003F3330180C0C0C001E334A
:1001E000331E33331E001E33333E30180E000C1EF8
:1001F00033333F3333003F66663E66663F003C66FE
:10020000030303663C001F36666666361F007F46A2
:10021000161E16467F007F46161E16060F003C6609
:10022000030373667C003333333F333333001E0CD8
:100230000C0C0C0C1E007830303033331E00676617
:10024000361E366667000F06060646667F00637731
:100250007F7F6B63630063676F7B736363001C3630
:10026000636363361C003F66663E06060F001E335E
:1002700033333B1E38003F66663E366667001E33EA
:10028000070E38331E003F2D0C0C0C0C1E003333B0
:10029000333333333F0033333333331E0C00636364
:1002A000636B7F7763006363361C1C3663003333F4
:1002B000331E0C0C1E007F6331184C667F008800D3
:1002C0002280082002882280082002882200F8006C
:1002D0003E800FE003F83E800FE003F83E0001028D
:1002E00003030405060607080800010102030404CD
:1002F000050607084444C04460446006C006400E3A
:10030000600C11241FBECFE5D2E0DEBFCDBF21E0DF
:10031000A0EAB0E001C01D92A534B207E1F710E0F9
:10032000A0E6B0E0E2EDFEE102C005900D92A03A39
:10033000B107D9F78CD8CBCD63CE3FB7F894809175
:10034000DA009091DB00A091DC00B091DD0022B7D3
:1003500008B601FE05C02F3F19F00196A11DB11D81
:100360003FBFBA2FA92F982F8827820F911DA11D5B
:10037000B11DBC01CD0143E0660F771F881F991F97
:100380004A95D1F70895089590E0FC01E85CFF4F8D
:100390002491FC01E25DFF4F3491FC01EC5DFF4FC5
:1003A000E491EE2319F1222399F0223071F028F420
:1003B000213071F48AB58F770AC0233011F02430D0
:1003C00039F48CB58F7D8CBD03C08AB58F7D8ABD15
:1003D000F0E0EE0FFF1FE25EFF4FA591B491EC91AC
:1003E000E32381E090E021F480E0089580E090E054
:1003F00008958F929F92AF92BF92CF92DF92EF9229
:10040000FF926B017C0199DF4B015C01C114D104A7
:10041000E104F104E9F091DFDC01CB0188199909CD
:10042000AA09BB09883E9340A105B10578F321E0F4
:10043000C21AD108E108F10888EE880E83E0981E00
:10044000A11CB11CC114D104E104F10421F7DECFD9
:10045000FF90EF90DF90CF90BF90AF909F908F90E4
:1004600008952FB7F8946091D6007091D7008091CD
:10047000D8009091D9002FBF08951F920F920FB608
:100480000F9211242F933F938F939F93AF93BF931A
:100490008091D6009091D700A091D800B091D9005A
:1004A0003091D50026E0230F2D3720F40296A11DB0
:1004B000B11D05C029E8230F0396A11DB11D20938E
:1004C000D5008093D6009093D700A093D800B09326
:1004D000D9008091DA009091DB00A091DC00B0910E
:1004E000DD000196A11DB11D8093DA009093DB0021
:1004F000A093DC00B093DD00BF91AF919F918F91ED
:100500003F912F910F900FBE0F901F9018951F9243
:100510000F920FB60F9211242F933F934F935F9337
:100520006F937F938F939F93AF93BF93EF93FF93BB
:10053000E0916200F09163000995FF91EF91BF9106
:10054000AF919F918F917F916F915F914F913F916B
:100550002F910F900FBE0F901F9018951F920F9222
:100560000FB60F9211242F933F934F935F936F9386
:100570007F938F939F93AF93BF93EF93FF93E091FC
:100580006000F09161000995FF91EF91BF91AF91EB
:100590009F918F917F916F915F914F913F912F919B
:1005A0000F900FBE0F901F9018951F93CF93DF935E
:1005B0001F92CDB7DEB7182F6983EBD288E7CBD275
:1005C00080E0C9D2698180EB860FC5D2812F8295E8
:1005D0008F708061C0D2812F8E708160BCD20F90ED
:1005E000DF91CF911F91D0C2CF92DF92EF92FF9215
:1005F0000F931F93CF93DF93082F82EAE82E80E0BA
:10060000F82E10E0C0E0D0E06C2FF701EC0FFD1FDA
:1006100080818130D9F4011109C09091B200690F35
:100620008091B40041E0810F26D210C0013071F4F6
:10063000D090B200C090B3006D0D8091B40040E046
:10064000810F19D2D092A000C092A1002196C4308F
:10065000D105D1F61F5F84E0E80EF11C143091F64D
:10066000DF91CF911F910F91FF90EF90DF90CF908E
:100670000895EF92FF920F931F93CF93DF93082F6C
:1006800081E3E82E81E0F82E10E0C0E0D0E06C2F8E
:10069000F701EC0FFD1F8081813099F4011107C033
:1006A00090914101690F8091430141E008C0013000
:1006B00041F490914101690F8091430140E0810F25
:1006C00012D22196C430D10511F71F5F84E0E80EE5
:1006D000F11C1430D1F6DF91CF911F910F91FF9053
:1006E000EF900895CF93DF93C0914101D0914201E3
:1006F000C330D105A4F1CE010297909342018093BB
:10070000410109D1811106C08091410190914201BE
:100710000197F3CF80E1E1E3F1E0A2EAB0E00190DC
:100720000D928A95E1F720914101309142012F5FAE
:100730003F4F3093B3002093B200809143019091DA
:1007400044019093B5008093B400DD27D09342011B
:10075000C0934101229781E02C173D070CF080E007
:10076000DF91CF910895CF93DF93E62F282F30E0CC
:100770006830D0F481E090E0DC0102C0AA0FBB1F1A
:100780006A95E2F7C90163E070E043DA8D5F9E4F3E
:10079000EC01288130E0CD018223932302C095959E
:1007A0008795EA95E2F735C0462F50E06031A8F012
:1007B0004F50510981E090E0FC01042E02C0EE0F81
:1007C000FF1F0A94E2F7C90163E070E022DA8D5F4F
:1007D0009E4FDC0112962C9113C04850510981E0C4
:1007E00090E0FC01042E02C0EE0FFF1F0A94E2F716
:1007F000C90163E070E00DDA8D5F9E4FEC01298145
:1008000030E0CF018223932302C0959587954A95C6
:10081000E2F7DF91CF910895CF93DF93E62F282F52
:1008200030E06830D0F481E090E0DC0102C0AA0F33
:10083000BB1F6A95E2F7C90163E070E0EAD98B510A
:100840009F4FEC01288130E0CD018223932302C029
:1008500095958795EA95E2F735C0462F50E06031CF
:10086000A8F04F50510981E090E0FC01042E02C035
:10087000EE0FFF1F0A94E2F7C90163E070E0C9D9E7
:100880008B519F4FDC0112962C9113C04850510997
:1008900081E090E0FC01042E02C0EE0FFF1F0A94DD
:1008A000E2F7C90163E070E0B4D98B519F4FEC01CE
:1008B000298130E0CF018223932302C0959587954B
:1008C0004A95E2F7DF91CF9108958091D10081118F
:1008D0000CC083E08093D100C4DD6093CA007093A4
:1008E000CB008093CC009093CD0008958091D100EF
:1008F00081110CC082E08093D100B3DD6093CA0007
:100900007093CB008093CC009093CD000895683015
:1009100008F44BCE08955F926F927F928F929F92D0
:10092000AF92BF92CF92DF92EF92FF920F931F93FD
:10093000CF93DF936090430170904401C0904101D8
:10094000D09042018301530183E0A80EB11C4601FF
:1009500083E0880E911C502EE02EE618A016B106FA
:100960005CF1E601F12CEE0CFF1CEE0CFF1C8C2F51
:100970008C198C169D06CCF0F701E80FF11DEF5C89
:10098000FE4F8081882379F017FD12C00A301105CF
:100990008CF4D7FD0FC0C831D1052CF46C2F852DF8
:1009A0003BDF811107C02196E2CF0F5F1F4FD3CFEE
:1009B00082E003C081E001C080E0DF91CF911F9110
:1009C0000F91FF90EF90DF90CF90BF90AF909F90EE
:1009D0008F907F906F905F90089584E1E1E3F1E064
:1009E000A6EBB0E001900D928A95E1F7809143016A
:1009F00090914401019690934401809343018BDFD1
:100A0000882351F084E1E6EBF0E0A1E3B1E001904E
:100A10000D928A95E1F7089581E0E6DD63DE882393
:100A200011F080E0E1CD089584E1E1E3F1E0A6EB8F
:100A3000B0E001900D928A95E1F780914301909189
:100A400044010197909344018093430164DF88231C
:100A500051F084E1E6EBF0E0A1E3B1E001900D920A
:100A60008A95E1F7089581E0BFDD3CDE882311F02F
:100A700080E0BACD0895A62F683040F0603118F0BC
:100A8000AF5022E004C0A85021E001C020E090E077
:100A900030E063E070E0BDD8820F931FFC01ED5F92
:100AA000FE4F442349F081E090E001C0880FAA95F1
:100AB000EAF79081892B15C027E030E02A1B310925
:100AC0008FE790E0AC0102C0559547952A95E2F773
:100AD0008EEF90E001C0880FAA95EAF7842B9081F1
:100AE000892380830895A62F683040F0603118F084
:100AF000AF5022E004C0A85021E001C020E090E007
:100B000030E063E070E085D8820F931FFC01EB5169
:100B1000FF4F442349F081E090E001C0880FAA957F
:100B2000EAF79081892B15C027E030E02A1B3109B4
:100B30008FE790E0AC0102C0559547952A95E2F702
:100B40008EEF90E001C0880FAA95EAF7842B908180
:100B500089238083089520E030E090E0AC01022EEC
:100B600001C0440F0A94EAF747FF02C0C39A01C0CC
:100B7000C398C49AC4982F5F3F4F2830310571F74E
:100B8000C39AC49AC4980895C498C398C49AC39A3F
:100B90000895C49AC39AC398C4980895FADF88E761
:100BA000DADF80E4D8CF2F923F924F925F926F921C
:100BB0007F928F929F92AF92BF92CF92DF92EF92ED
:100BC000FF920F931F93CF93DF93CDB7DEB7289794
:100BD0000FB6F894DEBF0FBECDBF202E7A0157FFAF
:100BE00002C0E12CF12C690124E1C216D1041CF0F1
:100BF00023E1C22ED12CFC0197FF02C0E0E0F0E01F
:100C0000E751FD4F34913F83FB016B30710514F0C8
:100C1000EAE0F0E0E252FD4F449149838E2D66E018
:100C2000EFD7382E4F80440CEE822F813981231765
:100C300008F0AFC05F81543048F0573018F4552E9B
:100C4000539405C05F805394539401C05F806F81BB
:100C5000832D5DDEA3DFE114F10411F48FEF0BC0EF
:100C60009F81911102C081E006C02F81273011F4CD
:100C700080E801C080E06FDF3E813887842D90E0FE
:100C8000AC0142535D4F3A01AA24A394A50C9C01E8
:100C90002F5F3F4FD901A253BD4F4D01A9014254CF
:100CA0005D4F5B834A839C0122543D4F3D832C83DF
:100CB0003885832F90E08C159D050CF047C000E02F
:100CC0003F81332321F0373021F010E003C011E0E1
:100CD00001C010E86885852D9FDD882329F0F30188
:100CE0009491B92EB12A01C0B12E68858A2D94DD68
:100CF000882319F0F4018491B82A80916400882334
:100D0000C9F06885852D2FDD882341F0802F8B7FEA
:100D100009F43BC0EC81FD818491B82A68858A2D55
:100D200022DD882339F0802F8B7F89F1EA81FB81D6
:100D30008491B82A8B2D0FDF0F5F053009F0C0CFEB
:100D4000812F09DF28852F5F2887B2CF222039F035
:100D50001BDF4F814F5F4F834394439466CF5F8186
:100D60005630B0F3A12CB12C052F10E0F501E00FA7
:100D7000F11FE55EFE4F8081EEDE82E0A80EB11C21
:100D800090E1A916B10491F7E3CFF301C5CFF401C7
:100D9000CFCF28960FB6F894DEBF0FBECDBFDF9140
:100DA000CF911F910F91FF90EF90DF90CF90BF9068
:100DB000AF909F908F907F906F905F904F903F90FB
:100DC0002F900895EF92FF920F931F93CF93DF938D
:100DD000EC017B01102FE7DE1130C1F44091B2002D
:100DE0005091B300E091A000F091A1004E175F0771
:100DF0002CF49F012C5F3F4F01E005C09A012C5F4E
:100E00003F4F01E0AF01B701CE01CDDEDF91CF91C1
:100E10001F910F91FF90EF9008950F93CF93DF9361
:100E200090E1E1E2F1E0DF011D929A95E9F781504E
:100E300001F580E090E0E2E6F1E02491DC01AF5DB5
:100E4000BE4F14962C931497249115962C930296CA
:100E50008830910591F700E023E130E040E050E078
:100E60006AE070E080E090E09EDEDF91CF910F912C
:100E7000089520E030E090E0880F991F880F991FB7
:100E8000EC01CE59DE4FBC016D597E4FFE014491FD
:100E9000D901AF5DBE4F4C93FB01449111964C9329
:100EA0002E5F3F4F2630310589F720E030E0BC014E
:100EB0006C597E4F8B599E4FFB014491D901AF5D18
:100EC000BE4F18964C931897FC01449119964C9379
:100ED0002E5F3F4F2630310579F7BDCF7F928F923D
:100EE0009F92AF92BF92CF92DF92EF92FF920F93B9
:100EF0001F93CF93DF9300D000D000D0CDB7DEB7E3
:100F0000FC016B01742EE22E2AE030E0B90192D68A
:100F10008E83CB01B9018ED68D83CF0164E670E05C
:100F200089D6CB01B90186D68C83CF0168EE73E0F8
:100F300081D6CB01B9017ED68B83CF0160E177E208
:100F400079D6CB01B90176D68A831982FC2C560159
:100F500085E0A80EB11C0F2D10E0A016B1064CF1D3
:100F60006F2D872DD4DC1ADE97E0892E912C0C1979
:100F70001D09A1E0B0E0AC0FBD1F0A0F1B1FEE2042
:100F800011F080E00EC0D801EC91F0E0349683E0DF
:100F9000EE0FFF1F8A95E1F7E80DF91DE258FE4FAD
:100FA0008491D9DDB1E08B1A910848F7EDDDF39417
:100FB000D2CF26960FB6F894DEBF0FBECDBFDF911D
:100FC000CF911F910F91FF90EF90DF90CF90BF9046
:100FD000AF909F908F907F900895FF920F931F93F3
:100FE000CF93DF9380E1E1E3F1E0A6EBB0E0019085
:100FF0000D928A95E1F7C0914101D0914201D093C1
:10100000C700C093C6008091430190914401909322
:10101000C9008093C800CE0101979093420180934C
:10102000410179DC882309F4B0C0D0934201C09318
:10103000410180E01EDBC0E0D0E010E001E06C2F59
:10104000812FEADB811101C000E01F5F1A30B9F780
:10105000002381F1DF5F10E040E06C2F812F43DD42
:101060001F5F1A30C9F74C2F50E09A012F5F3F4F96
:1010700001E069E070E080E090E0A4DE6EE170E005
:1010800080E090E0B6D910E00C2F073179F0FF2412
:10109000F394F00E6F2D812FBFDB41E0811101C071
:1010A00040E0602F812F1FDD0F2DEFCF1F5F1A3023
:1010B00059F7C150CF5FC83108F4BFCF8091CE003F
:1010C0009091CF008D0F911D9093CF008093CE0013
:1010D000D230A1F040F4D13011F58091D20090913E
:1010E000D300889618C0D33081F0D430C1F48091F9
:1010F000D2009091D300805E9C4F0DC08091D200B1
:101100009091D3008C599F4F06C08091D20090914E
:10111000D300845D9E4F9093D3008093D20000E073
:1011200023E130E040E050E06AE070E080E090E0F1
:101130003ADD20E045E750E060E070E08091D200C9
:101140009091D300CBDE8091D0003BD1E4DB8823AB
:1011500021F081E08093D4000AC08091D00031D189
:1011600081E042DABFDA882311F080E03DDACCD5A5
:1011700027E030E040E050E0EAD5DC01CB01019609
:10118000A11DB11D8093D00048DE81E02DDAAADADE
:10119000882311F080E028DADF91CF911F910F9121
:1011A000FF900895CF9360E080E0FFD9F7DC8FEFE8
:1011B000D2DCCDE781E0CFDCC150E1F78FEFCBDCB3
:1011C000E3DCC1E06C2F80E0A2DBE8DC8FEFC3DC66
:1011D000DBDC6C2F8FE79BDBE1DC8FEFBCDCD4DC4E
:1011E000CF5FC73079F767E080E0DFD9D7DC8FEFDA
:1011F000B2DCCDE780E8AFDCC150E1F78FEFABDCCC
:10120000CF91C2CCCF93C82FC4DC88E7A4DC80E0A8
:10121000A2DC8C2FA0DCCF91B7CCBB9ABC9A8EEA13
:10122000F1DF80E0EFDF80E1EDDF80E4EBDF81E8FC
:10123000E9DF8FECE7DF81EAE5DF88ECE3DF86EAD0
:10124000E1DF88EADFDF8FE3DDDF83EDDBDF80E0F6
:10125000D9DF85EDD7DF80E8D5DF89EDD3DF81EFFA
:10126000D1DF8AEDCFDF82E1CDDF8BEDCBDF80E414
:10127000C9DF80E2C7DF82E0C5DF8DE8C3DF84E13C
:10128000C1DF84EABFDF86EABDDF8FEABBCF1F92F2
:101290000F920FB60F9211242F933F934F935F93AA
:1012A0006F937F938F939F93AF93BF93EF93FF932E
:1012B0008091D10081110CC081E08093D100D1D800
:1012C0006093CA007093CB008093CC009093CD00C4
:1012D00081E05AD8019719F483E08093D100FF91FF
:1012E000EF91BF91AF919F918F917F916F915F919E
:1012F0004F913F912F910F900FBE0F901F90189517
:10130000AF92BF92DF92EF92FF920F931F93CF9312
:10131000DF93E82ED62E8A01F12C6F2D6E0DF80189
:10132000EF0DF11D9081992359F1903239F1C4EDFF
:10133000C90FC03130F0CDECC90FC93210F0C7EC85
:10134000C90F8D2DE4DA2ADCD0E083E0CC0FDD1F5D
:101350008A95E1F7A12CB12C2796FE01EA19FB0929
:10136000E258FE4F8491F7DB8FEFA81AB80A88E0A5
:10137000A816B10491F708DCF394CFCFC0E0E1CF19
:10138000DF91CF911F910F91FF90EF90DF90BF9071
:10139000AF900895CF93DF93C0EB8C2F33DF80E0C5
:1013A00031DF80E12FDFFADBD0E080E0D4DBDF5FEC
:1013B000D038D9F7E9DBCF5FC83B79F7DF91CF9120
:1013C00008951F93CF93DF938150A1E3B1E060E0D4
:1013D00090E0880F991F8C509D4FC1E0D0E011E044
:1013E00020E030E0762F720FFC0145915491FE0110
:1013F000072E02C0EE0FFF1F0A94E2F74E235F2371
:1014000002C0569547957A95E2F7FD01E20FF31F6A
:101410004130510511F4108301C010822F5F3F4FFE
:1014200024303105F9F66C5F14966031C9F683E11A
:1014300090E0909342018093410183E090E090938B
:10144000440180934301DF91CF911F910895CF9381
:10145000DF93CDB7DEB760970FB6F894DEBF0FBE4F
:10146000CDBF78948AB582608ABD8AB581608ABD15
:1014700083B7826083BF83B7816083BF89B782608F
:1014800089BF80B7826080BF80B7816080BF329A99
:10149000319A3098379A8CB580648CBD17BA83E046
:1014A00085BB8BB780628BBF7894B7DE1092D1007A
:1014B00017E0412E512C612C712CB6E92B2E312CCA
:1014C000ACDE68DF49E650E060E481E019DF40E728
:1014D00050E060E381E014DF4CE750E068E281E037
:1014E0000FDF60DE00E010E0602F8EE410DA56DBE4
:1014F000C80164E270E08DD37C01812C912CF40151
:10150000EE0DFF1DEE5BFF4F849125DB2FEF821A5E
:10151000920A34E28316910491F736DB0F5F1F4F76
:101520000830110509F79DD76B017C0180E02CD7AD
:10153000019709F03FC095D7DC01CB018C199D09BB
:10154000AE09BF09813D9740A105B1057CF382E05A
:101550001BD70197B9F443E750E068E082E0D0DEA2
:101560008091E400811107C081E08093E40048E7A6
:1015700050E060E11BC01092E4004DE750E060E1F4
:1015800081E015C044E850E060E181E0B9DE80917F
:101590006400811106C081E0809364004AE850E055
:1015A00004C0109264004DE850E068E082E0A8DEDC
:1015B00011E001C010E080E0E7D60197E1F31123CC
:1015C00021F168EE73E080E090E013D7E3DE8EEA6D
:1015D00019DE379885B7877E806185BF85B78062C1
:1015E00085BF85B7806285BF889585B78F7D85BFAC
:1015F00085B78F7D85BF379A8FEA04DE80E090E063
:10160000892B09F45DCFFCD458CF60E476E080E00C
:1016100090E0EFD66CED75E080E090E0EAD6BADEBF
:101620001092D4001092D3001092D2001092D100E8
:1016300000E010E040E0602F812F55DA1F5F1A3084
:10164000C9F70F5F0831A9F700E010E040E0602F14
:10165000812F11DA1F5F1A30C9F70F5F0831A9F720
:1016600086E794E0909361008093600085B7836083
:1016700085BF8BB780648BBF85E694E09093630051
:101680008093620041D3A301920161D381E0860F70
:1016900098DE80E0EED726D8882311F080E0A4D72A
:1016A00080E0A2D731D3A301920151D3DC01CB0159
:1016B0000196A11DB11D8093D000AFDB8091E400A5
:1016C000811120C081E090E09093CF008093CE0004
:1016D00000E023E130E040E050E06AE070E080E0CC
:1016E00090E061DA20E045E750E060E070E0809152
:1016F000D2009091D300F2DB14E1F0E1EF2EA5E0EF
:10170000FA2E6AC014E681E0B4D767DCFDD2A301EB
:1017100092011DD364307105810591050CF084D9C7
:1017200080E0A7D7115079F7CDCF81E0A2D755DC63
:1017300080E09FD740914101509142018091430147
:10174000909144019A012B5F3F4FBC016C5F7F4F2A
:1017500001E038DB86D66093E0007093E10080936F
:10176000E2009093E3008091CE009091CF00880F2B
:10177000991F880F991F8935924034F086E990E0CF
:101780009093CF008093CE0074E0972E6AD620917C
:10179000E0003091E1004091E2005091E3005B01F4
:1017A0006C01A21AB30AC40AD50AB601A501809138
:1017B000CE009091CF006101C81AD90AC601880FE6
:1017C000991F880F991F092E000CAA0BBB0B4817F5
:1017D00059076A077B0730F08091D400882309F409
:1017E000A4CFADC082E0D0D50197E9F58091D100BA
:1017F0008230C9F536D62091CA003091CB00409195
:10180000CC005091CD00DC01CB01821B930BA40BCB
:10181000B50B8D329140A105B10528F182E0B4D518
:101820000197F9F481E025D7D8DB80E022D74091F9
:1018300041015091420180914301909144019A01EC
:101840002B5F3F4FBC016C5F7F4F01E0BBDA6AE06A
:1018500070E080E090E0CDD58091D4008823F1F253
:1018600095CF1092D10080E08FD50197D9F4809167
:10187000D100813011F08430A9F4F3D52091CA0051
:101880003091CB004091CC005091CD00DC01CB01D8
:10189000821B930BA40BB50B893C9105A105B105E7
:1018A00008F0D5C081E070D50197D9F48091D100BE
:1018B000833011F08530A9F4D4D52091CA0030913D
:1018C000CB004091CC005091CD00DC01CB01821BBC
:1018D000930BA40BB50B893C9105A105B10508F04C
:1018E000DEC080E051D5892B21F581E04DD5892BD3
:1018F00001F582E049D5892BE1F48091D100823055
:1019000009F0F4C0AED52091CA003091CB004091CF
:10191000CC005091CD00DC01CB01821B930BA40BBA
:10192000B50B8C329140A105B10508F410C110929D
:10193000D1006EE170E080E090E05BD527CF2ADD3A
:1019400080E090E0EED1082F10E0102F00271093D8
:10195000DF000093DE0081E090E0E3D1082B1093DC
:10196000DF000093DE006091D2007091D300061773
:1019700017077CF47093DF006093DE0081E090E055
:10198000D8D16091D30080E090E0D3D19924939492
:1019900001C0912C07DC41E950E06AE581E0B0DC50
:1019A0000091D2001091D30020E040E550E061E0CA
:1019B00070E0C80193DA992029F047E950E06CE320
:1019C00081E09EDC4BE950E062E381E099DC41E993
:1019D00050E068E281E094DCE090DE00F090DF000F
:1019E00020E04EE150E061E070E0C70177DA84E08A
:1019F000882E21E040E550E061E070E0C8016EDA39
:101A0000992039F021E04EE150E061E070E0C7013B
:101A100065DA68EC70E080E090E0EBD420E040E52F
:101A200050E061E070E0C80159DA992039F020E017
:101A30004EE150E061E070E0C70150DA68EC70E020
:101A400080E090E0D6D48A948110D3CFBACD81E0E3
:101A500010D6C3D780E00DD640914101509142018C
:101A600080914301909144019A012C5F3F4FBC014A
:101A70006C5F7F4F01E00197A5D9F3D4DC01CB0166
:101A80008C599F4FAF4FBF4F8093CA009093CB00AC
:101A9000A093CC00B093CD009092D10003CF81E011
:101AA000E8D5C2D780E0E5D540914101509142018F
:101AB00080914301909144019A012C5F3F4FBC01FA
:101AC0006B5F7F4F01E07ED9CCD4DC01CB018C5918
:101AD0009F4FAF4FBF4F8093CA009093CB00A0930E
:101AE000CC00B093CD00F092D100FBCE8130B1F4A8
:101AF00081E0BFD572D780E0BCD5409141015091C3
:101B0000420180914301909144019A012C5F3F4F23
:101B1000BC016C5F7F4F01E0019717C0833009F073
:101B200006CF81E0A6D580D780E0A3D540914101C2
:101B30005091420180914301909144019A012C5FA0
:101B40003F4FBC016B5F7F4F01E03CD9F0CE81E09D
:101B500090D521E331E0AE014F5F5F4F80E090E030
:101B6000FC01EE0FFF1FEE0FFF1FE40FF51FD90161
:101B7000A80FB91F1C966C91608301968430910563
:101B800079F7245031094F5F5F4F81E021323807E8
:101B900029F7E1E3F1E0A6EBB0E0812F01900D928F
:101BA0008A95E1F7FE013196A1E3B1E08E2D019017
:101BB0000D928A95E1F7AFD6882351F0E6EBF0E07D
:101BC000A1E3B1E0812F01900D928A95E1F707C062
:101BD00081E00AD587D5882311F080E005D580E023
:101BE00048D540914101509142018091430190912B
:101BF00044019A012C5F3F4FBC016C5F7F4FA4CF23
:101C0000002480FD060E660F11F08695D1F7802D19
:101C100008950024552704C0080E591F880F991FE6
:101C2000009729F076956795B8F37105B9F7802D7F
:101C3000952F089597FB072E16F4009406D077FD94
:101C400008D00BD007FC05D03EF4909581959F4FAE
:101C50000895709561957F4F0895AA1BBB1B51E1B4
:101C600007C0AA1FBB1FA617B70710F0A61BB70B0C
:101C7000881F991F5A95A9F780959095BC01CD01B1
:101C80000895A0E0B0E0E6E4FEE0A0C0EC016881C9
:101C900079818A819B81611571058105910521F406
:101CA00064E279ED8BE597E02DE133EF41E050E020
:101CB0004ED049015A0127EA31E440E050E063D0B8
:101CC00069017A01C501B4012CEE34EF4FEF5FEFEB
:101CD0005AD0022F132F9A01D701C601800F911FEE
:101CE000A21FB31FB7FF03C00197A109B0488883A3
:101CF0009983AA83BB83BC01CD019F77CDB7DEB7A3
:101D0000ECE080C0BEDF089585E690E0BADF08957C
:101D100060936500709366008093670090936800FD
:101D20000895E199FECF9FBB8EBBE09A99278DB3B2
:101D30000895262FE199FECF1CBA9FBB8EBB2DBB09
:101D40000FB6F894E29AE19A0FBE01960895052E17
:101D500097FB16F400940FD057FD05D068D007FC10
:101D600002D046F408C050954095309521953F4FDC
:101D70004F4F5F4F089590958095709561957F4F77
:101D80008F4F9F4F089568940013E894A0E0B0E04F
:101D9000EBECFEE01DC0EFEFE7F959016A015E23AD
:101DA000550FEE08FE2C87019B01AC019E23990F75
:101DB000660B762FCB015DD0CDB7DEB7EAE024C04D
:101DC0002F923F924F925F926F927F928F929F924B
:101DD000AF92BF92CF92DF92EF92FF920F931F9339
:101DE000CF93DF93CDB7DEB7CA1BDB0B0FB6F894EA
:101DF000DEBF0FBECDBF09942A88398848885F842A
:101E00006E847D848C849B84AA84B984C884DF809A
:101E1000EE80FD800C811B81AA81B981CE0FD11D7E
:101E20000FB6F894DEBF0FBECDBFED010895A1E25D
:101E30001A2EAA1BBB1BFD010DC0AA1FBB1FEE1F44
:101E4000FF1FA217B307E407F50720F0A21BB30B8F
:101E5000E40BF50B661F771F881F991F1A9469F70B
:101E600060957095809590959B01AC01BD01CF0167
:101E70000895DF93CF939F92A0E49A2E0024D0017F
:101E8000E001F00116950795F794E794D794C7946D
:101E9000B794A79448F41068A20FB31FC41FD51FAE
:101EA000E61FF71F081E191E220F331F441F551F60
:101EB000661F771F881F991F9A9421F79D01AE0115
:101EC000BF01C00111249F90CF91DF910895F89434
:021ED000FFCF42
:101ED200C301C3010101000000544554524953009B
:101EE200414D004D4F44450048415244004E4F522F
:101EF2004D414C0047484F5354004F4E004F464609
:101F02000053434F5245004E455700484947480049
:00000001FF
